{
  "_format": "hh-sol-artifact-1",
  "contractName": "NextJSTicket",
  "sourceName": "contracts/NextJSTicket.sol",
  "abi": [
    {
      "inputs": [],
      "stateMutability": "nonpayable",
      "type": "constructor"
    },
    {
      "anonymous": false,
      "inputs": [
        {
          "indexed": true,
          "internalType": "address",
          "name": "owner",
          "type": "address"
        },
        {
          "indexed": true,
          "internalType": "address",
          "name": "approved",
          "type": "address"
        },
        {
          "indexed": true,
          "internalType": "uint256",
          "name": "tokenId",
          "type": "uint256"
        }
      ],
      "name": "Approval",
      "type": "event"
    },
    {
      "anonymous": false,
      "inputs": [
        {
          "indexed": true,
          "internalType": "address",
          "name": "owner",
          "type": "address"
        },
        {
          "indexed": true,
          "internalType": "address",
          "name": "operator",
          "type": "address"
        },
        {
          "indexed": false,
          "internalType": "bool",
          "name": "approved",
          "type": "bool"
        }
      ],
      "name": "ApprovalForAll",
      "type": "event"
    },
    {
      "anonymous": false,
      "inputs": [
        {
          "indexed": true,
          "internalType": "address",
          "name": "previousOwner",
          "type": "address"
        },
        {
          "indexed": true,
          "internalType": "address",
          "name": "newOwner",
          "type": "address"
        }
      ],
      "name": "OwnershipTransferred",
      "type": "event"
    },
    {
      "anonymous": false,
      "inputs": [
        {
          "indexed": true,
          "internalType": "address",
          "name": "from",
          "type": "address"
        },
        {
          "indexed": true,
          "internalType": "address",
          "name": "to",
          "type": "address"
        },
        {
          "indexed": true,
          "internalType": "uint256",
          "name": "tokenId",
          "type": "uint256"
        }
      ],
      "name": "Transfer",
      "type": "event"
    },
    {
      "inputs": [
        {
          "internalType": "address",
          "name": "to",
          "type": "address"
        },
        {
          "internalType": "uint256",
          "name": "tokenId",
          "type": "uint256"
        }
      ],
      "name": "approve",
      "outputs": [],
      "stateMutability": "nonpayable",
      "type": "function"
    },
    {
      "inputs": [
        {
          "internalType": "address",
          "name": "owner",
          "type": "address"
        }
      ],
      "name": "balanceOf",
      "outputs": [
        {
          "internalType": "uint256",
          "name": "",
          "type": "uint256"
        }
      ],
      "stateMutability": "view",
      "type": "function"
    },
    {
      "inputs": [],
      "name": "baseURI",
      "outputs": [
        {
          "internalType": "string",
          "name": "",
          "type": "string"
        }
      ],
      "stateMutability": "view",
      "type": "function"
    },
    {
      "inputs": [
        {
          "internalType": "uint256",
          "name": "tokenId",
          "type": "uint256"
        }
      ],
      "name": "getApproved",
      "outputs": [
        {
          "internalType": "address",
          "name": "",
          "type": "address"
        }
      ],
      "stateMutability": "view",
      "type": "function"
    },
    {
      "inputs": [
        {
          "internalType": "address",
          "name": "owner",
          "type": "address"
        },
        {
          "internalType": "address",
          "name": "operator",
          "type": "address"
        }
      ],
      "name": "isApprovedForAll",
      "outputs": [
        {
          "internalType": "bool",
          "name": "",
          "type": "bool"
        }
      ],
      "stateMutability": "view",
      "type": "function"
    },
    {
      "inputs": [],
      "name": "mintItem",
      "outputs": [
        {
          "internalType": "uint256",
          "name": "",
          "type": "uint256"
        }
      ],
      "stateMutability": "nonpayable",
      "type": "function"
    },
    {
      "inputs": [],
      "name": "name",
      "outputs": [
        {
          "internalType": "string",
          "name": "",
          "type": "string"
        }
      ],
      "stateMutability": "view",
      "type": "function"
    },
    {
      "inputs": [],
      "name": "owner",
      "outputs": [
        {
          "internalType": "address",
          "name": "",
          "type": "address"
        }
      ],
      "stateMutability": "view",
      "type": "function"
    },
    {
      "inputs": [
        {
          "internalType": "uint256",
          "name": "tokenId",
          "type": "uint256"
        }
      ],
      "name": "ownerOf",
      "outputs": [
        {
          "internalType": "address",
          "name": "",
          "type": "address"
        }
      ],
      "stateMutability": "view",
      "type": "function"
    },
    {
      "inputs": [],
      "name": "renounceOwnership",
      "outputs": [],
      "stateMutability": "nonpayable",
      "type": "function"
    },
    {
      "inputs": [
        {
          "internalType": "address",
          "name": "from",
          "type": "address"
        },
        {
          "internalType": "address",
          "name": "to",
          "type": "address"
        },
        {
          "internalType": "uint256",
          "name": "tokenId",
          "type": "uint256"
        }
      ],
      "name": "safeTransferFrom",
      "outputs": [],
      "stateMutability": "nonpayable",
      "type": "function"
    },
    {
      "inputs": [
        {
          "internalType": "address",
          "name": "from",
          "type": "address"
        },
        {
          "internalType": "address",
          "name": "to",
          "type": "address"
        },
        {
          "internalType": "uint256",
          "name": "tokenId",
          "type": "uint256"
        },
        {
          "internalType": "bytes",
          "name": "_data",
          "type": "bytes"
        }
      ],
      "name": "safeTransferFrom",
      "outputs": [],
      "stateMutability": "nonpayable",
      "type": "function"
    },
    {
      "inputs": [
        {
          "internalType": "address",
          "name": "operator",
          "type": "address"
        },
        {
          "internalType": "bool",
          "name": "approved",
          "type": "bool"
        }
      ],
      "name": "setApprovalForAll",
      "outputs": [],
      "stateMutability": "nonpayable",
      "type": "function"
    },
    {
      "inputs": [
        {
          "internalType": "bytes4",
          "name": "interfaceId",
          "type": "bytes4"
        }
      ],
      "name": "supportsInterface",
      "outputs": [
        {
          "internalType": "bool",
          "name": "",
          "type": "bool"
        }
      ],
      "stateMutability": "view",
      "type": "function"
    },
    {
      "inputs": [],
      "name": "symbol",
      "outputs": [
        {
          "internalType": "string",
          "name": "",
          "type": "string"
        }
      ],
      "stateMutability": "view",
      "type": "function"
    },
    {
      "inputs": [
        {
          "internalType": "uint256",
          "name": "index",
          "type": "uint256"
        }
      ],
      "name": "tokenByIndex",
      "outputs": [
        {
          "internalType": "uint256",
          "name": "",
          "type": "uint256"
        }
      ],
      "stateMutability": "view",
      "type": "function"
    },
    {
      "inputs": [
        {
          "internalType": "address",
          "name": "owner",
          "type": "address"
        },
        {
          "internalType": "uint256",
          "name": "index",
          "type": "uint256"
        }
      ],
      "name": "tokenOfOwnerByIndex",
      "outputs": [
        {
          "internalType": "uint256",
          "name": "",
          "type": "uint256"
        }
      ],
      "stateMutability": "view",
      "type": "function"
    },
    {
      "inputs": [
        {
          "internalType": "uint256",
          "name": "tokenId",
          "type": "uint256"
        }
      ],
      "name": "tokenURI",
      "outputs": [
        {
          "internalType": "string",
          "name": "",
          "type": "string"
        }
      ],
      "stateMutability": "view",
      "type": "function"
    },
    {
      "inputs": [],
      "name": "totalSupply",
      "outputs": [
        {
          "internalType": "uint256",
          "name": "",
          "type": "uint256"
        }
      ],
      "stateMutability": "view",
      "type": "function"
    },
    {
      "inputs": [
        {
          "internalType": "address",
          "name": "from",
          "type": "address"
        },
        {
          "internalType": "address",
          "name": "to",
          "type": "address"
        },
        {
          "internalType": "uint256",
          "name": "tokenId",
          "type": "uint256"
        }
      ],
      "name": "transferFrom",
      "outputs": [],
      "stateMutability": "nonpayable",
      "type": "function"
    },
    {
      "inputs": [
        {
          "internalType": "address",
          "name": "newOwner",
          "type": "address"
        }
      ],
      "name": "transferOwnership",
      "outputs": [],
      "stateMutability": "nonpayable",
      "type": "function"
    }
  ],
  "bytecode": "0x60806040523480156200001157600080fd5b50604080518082018252601781527f5461746f6f696e6520546f757269736d205469636b65740000000000000000006020808301919091528251808401909352600383526215151560ea1b90830152906200007c6301ffc9a760e01b6001600160e01b036200019216565b81516200009190600690602085019062000235565b508051620000a790600790602084019062000235565b50620000c36380ac58cd60e01b6001600160e01b036200019216565b620000de635b5e139f60e01b6001600160e01b036200019216565b620000f963780e9d6360e01b6001600160e01b036200019216565b5060009050620001116001600160e01b036200021716565b600a80546001600160a01b0319166001600160a01b038316908117909155604051919250906000907f8be0079c531659141344cd1fd0a4f28419497f9722a3daafe3b4186f6b6457e0908290a3506200018c60405180606001604052806022815260200162002279602291396001600160e01b036200021c16565b620002d7565b6001600160e01b03198082161415620001f2576040805162461bcd60e51b815260206004820152601c60248201527f4552433136353a20696e76616c696420696e7465726661636520696400000000604482015290519081900360640190fd5b6001600160e01b0319166000908152602081905260409020805460ff19166001179055565b335b90565b80516200023190600990602084019062000235565b5050565b828054600181600116156101000203166002900490600052602060002090601f016020900481019282601f106200027857805160ff1916838001178555620002a8565b82800160010185558215620002a8579182015b82811115620002a85782518255916020019190600101906200028b565b50620002b6929150620002ba565b5090565b6200021991905b80821115620002b65760008155600101620002c1565b611f9280620002e76000396000f3fe608060405234801561001057600080fd5b50600436106101375760003560e01c80636c0360eb116100b8578063a22cb4651161007c578063a22cb4651461038d578063b88d4fde146103bb578063c87b56dd14610481578063e985e9c51461049e578063eb93406b146104cc578063f2fde38b146104d457610137565b80636c0360eb1461034757806370a082311461034f578063715018a6146103755780638da5cb5b1461037d57806395d89b411461038557610137565b806323b872dd116100ff57806323b872dd146102755780632f745c59146102ab57806342842e0e146102d75780634f6ccce71461030d5780636352211e1461032a57610137565b806301ffc9a71461013c57806306fdde0314610177578063081812fc146101f4578063095ea7b31461022d57806318160ddd1461025b575b600080fd5b6101636004803603602081101561015257600080fd5b50356001600160e01b0319166104fa565b604080519115158252519081900360200190f35b61017f61051d565b6040805160208082528351818301528351919283929083019185019080838360005b838110156101b95781810151838201526020016101a1565b50505050905090810190601f1680156101e65780820380516001836020036101000a031916815260200191505b509250505060405180910390f35b6102116004803603602081101561020a57600080fd5b50356105b4565b604080516001600160a01b039092168252519081900360200190f35b6102596004803603604081101561024357600080fd5b506001600160a01b038135169060200135610616565b005b6102636106f1565b60408051918252519081900360200190f35b6102596004803603606081101561028b57600080fd5b506001600160a01b03813581169160208101359091169060400135610702565b610263600480360360408110156102c157600080fd5b506001600160a01b038135169060200135610759565b610259600480360360608110156102ed57600080fd5b506001600160a01b0381358116916020810135909116906040013561078a565b6102636004803603602081101561032357600080fd5b50356107a5565b6102116004803603602081101561034057600080fd5b50356107c1565b61017f6107ef565b6102636004803603602081101561036557600080fd5b50356001600160a01b0316610850565b6102596108b8565b610211610976565b61017f610985565b610259600480360360408110156103a357600080fd5b506001600160a01b03813516906020013515156109e6565b610259600480360360808110156103d157600080fd5b6001600160a01b0382358116926020810135909116916040820135919081019060808101606082013564010000000081111561040c57600080fd5b82018360208201111561041e57600080fd5b8035906020019184600183028401116401000000008311171561044057600080fd5b91908080601f016020809104026020016040519081016040528093929190818152602001838380828437600092019190915250929550610aeb945050505050565b61017f6004803603602081101561049757600080fd5b5035610b49565b610163600480360360408110156104b457600080fd5b506001600160a01b0381358116916020013516610dcc565b610263610dfa565b610259600480360360208110156104ea57600080fd5b50356001600160a01b0316610e88565b6001600160e01b0319811660009081526020819052604090205460ff165b919050565b60068054604080516020601f60026000196101006001881615020190951694909404938401819004810282018101909252828152606093909290918301828280156105a95780601f1061057e576101008083540402835291602001916105a9565b820191906000526020600020905b81548152906001019060200180831161058c57829003601f168201915b505050505090505b90565b60006105bf82610f9d565b6105fa5760405162461bcd60e51b815260040180806020018281038252602c815260200180611e2d602c913960400191505060405180910390fd5b506000908152600460205260409020546001600160a01b031690565b6000610621826107c1565b9050806001600160a01b0316836001600160a01b031614156106745760405162461bcd60e51b8152600401808060200182810382526021815260200180611f0b6021913960400191505060405180910390fd5b806001600160a01b0316610686610fb0565b6001600160a01b031614806106a757506106a7816106a2610fb0565b610dcc565b6106e25760405162461bcd60e51b8152600401808060200182810382526038815260200180611d806038913960400191505060405180910390fd5b6106ec8383610fb4565b505050565b60006106fd6002611022565b905090565b61071361070d610fb0565b8261102d565b61074e5760405162461bcd60e51b8152600401808060200182810382526031815260200180611f2c6031913960400191505060405180910390fd5b6106ec8383836110d1565b6001600160a01b0382166000908152600160205260408120610781908363ffffffff61122f16565b90505b92915050565b6106ec83838360405180602001604052806000815250610aeb565b6000806107b960028463ffffffff61123b16565b509392505050565b600061078482604051806060016040528060298152602001611de2602991396002919063ffffffff61125716565b60098054604080516020601f60026000196101006001881615020190951694909404938401819004810282018101909252828152606093909290918301828280156105a95780601f1061057e576101008083540402835291602001916105a9565b60006001600160a01b0382166108975760405162461bcd60e51b815260040180806020018281038252602a815260200180611db8602a913960400191505060405180910390fd5b6001600160a01b038216600090815260016020526040902061078490611022565b6108c0610fb0565b6001600160a01b03166108d1610976565b6001600160a01b03161461092c576040805162461bcd60e51b815260206004820181905260248201527f4f776e61626c653a2063616c6c6572206973206e6f7420746865206f776e6572604482015290519081900360640190fd5b600a546040516000916001600160a01b0316907f8be0079c531659141344cd1fd0a4f28419497f9722a3daafe3b4186f6b6457e0908390a3600a80546001600160a01b0319169055565b600a546001600160a01b031690565b60078054604080516020601f60026000196101006001881615020190951694909404938401819004810282018101909252828152606093909290918301828280156105a95780601f1061057e576101008083540402835291602001916105a9565b6109ee610fb0565b6001600160a01b0316826001600160a01b03161415610a54576040805162461bcd60e51b815260206004820152601960248201527f4552433732313a20617070726f766520746f2063616c6c657200000000000000604482015290519081900360640190fd5b8060056000610a61610fb0565b6001600160a01b03908116825260208083019390935260409182016000908120918716808252919093529120805460ff191692151592909217909155610aa5610fb0565b60408051841515815290516001600160a01b0392909216917f17307eab39ab6107e8899845ad3d59bd9653f200f220920489ca2b5937696c319181900360200190a35050565b610afc610af6610fb0565b8361102d565b610b375760405162461bcd60e51b8152600401808060200182810382526031815260200180611f2c6031913960400191505060405180910390fd5b610b438484848461126e565b50505050565b6060610b5482610f9d565b610b8f5760405162461bcd60e51b815260040180806020018281038252602f815260200180611edc602f913960400191505060405180910390fd5b60008281526008602090815260409182902080548351601f6002600019610100600186161502019093169290920491820184900484028101840190945280845260609392830182828015610c245780601f10610bf957610100808354040283529160200191610c24565b820191906000526020600020905b815481529060010190602001808311610c0757829003601f168201915b505050505090506060610c356107ef565b9050805160001415610c4957509050610518565b815115610d0a5780826040516020018083805190602001908083835b60208310610c845780518252601f199092019160209182019101610c65565b51815160209384036101000a600019018019909216911617905285519190930192850191508083835b60208310610ccc5780518252601f199092019160209182019101610cad565b6001836020036101000a0380198251168184511680821785525050505050509050019250505060405160208183030381529060405292505050610518565b80610d14856112c0565b6040516020018083805190602001908083835b60208310610d465780518252601f199092019160209182019101610d27565b51815160209384036101000a600019018019909216911617905285519190930192850191508083835b60208310610d8e5780518252601f199092019160209182019101610d6f565b6001836020036101000a0380198251168184511680821785525050505050509050019250505060405160208183030381529060405292505050919050565b6001600160a01b03918216600090815260056020908152604080832093909416825291909152205460ff1690565b60006064610e08600b61139b565b10610e445760405162461bcd60e51b8152600401808060200182810382526024815260200180611cb46024913960400191505060405180910390fd5b610e4e600b61139f565b6000610e5a600b61139b565b9050610e6633826113a8565b6106fd816040518060600160405280602e8152602001611e85602e91396114e2565b610e90610fb0565b6001600160a01b0316610ea1610976565b6001600160a01b031614610efc576040805162461bcd60e51b815260206004820181905260248201527f4f776e61626c653a2063616c6c6572206973206e6f7420746865206f776e6572604482015290519081900360640190fd5b6001600160a01b038116610f415760405162461bcd60e51b8152600401808060200182810382526026815260200180611d0a6026913960400191505060405180910390fd5b600a546040516001600160a01b038084169216907f8be0079c531659141344cd1fd0a4f28419497f9722a3daafe3b4186f6b6457e090600090a3600a80546001600160a01b0319166001600160a01b0392909216919091179055565b600061078460028363ffffffff61154516565b3390565b600081815260046020526040902080546001600160a01b0319166001600160a01b0384169081179091558190610fe9826107c1565b6001600160a01b03167f8c5be1e5ebec7d5bd14f71427d1e84f3dd0314c0f7b2291e5b200ac8c7c3b92560405160405180910390a45050565b60006107848261139b565b600061103882610f9d565b6110735760405162461bcd60e51b815260040180806020018281038252602c815260200180611d54602c913960400191505060405180910390fd5b600061107e836107c1565b9050806001600160a01b0316846001600160a01b031614806110b95750836001600160a01b03166110ae846105b4565b6001600160a01b0316145b806110c957506110c98185610dcc565b949350505050565b826001600160a01b03166110e4826107c1565b6001600160a01b0316146111295760405162461bcd60e51b8152600401808060200182810382526029815260200180611eb36029913960400191505060405180910390fd5b6001600160a01b03821661116e5760405162461bcd60e51b8152600401808060200182810382526024815260200180611d306024913960400191505060405180910390fd5b6111798383836106ec565b611184600082610fb4565b6001600160a01b03831660009081526001602052604090206111ac908263ffffffff61155116565b506001600160a01b03821660009081526001602052604090206111d5908263ffffffff61155d16565b506111e86002828463ffffffff61156916565b5080826001600160a01b0316846001600160a01b03167fddf252ad1be2c89b69c2b068fc378daa952ba7f163c4a11628f55a4df523b3ef60405160405180910390a4505050565b6000610781838361157f565b600080808061124a86866115e3565b9097909650945050505050565b600061126484848461165e565b90505b9392505050565b6112798484846110d1565b61128584848484611728565b610b435760405162461bcd60e51b8152600401808060200182810382526032815260200180611cd86032913960400191505060405180910390fd5b6060816112e557506040805180820190915260018152600360fc1b6020820152610518565b8160005b81156112fd57600101600a820491506112e9565b60608167ffffffffffffffff8111801561131657600080fd5b506040519080825280601f01601f191660200182016040528015611341576020820181803683370190505b50859350905060001982015b831561139257600a840660300160f81b8282806001900393508151811061137057fe5b60200101906001600160f81b031916908160001a905350600a8404935061134d565b50949350505050565b5490565b80546001019055565b6001600160a01b038216611403576040805162461bcd60e51b815260206004820181905260248201527f4552433732313a206d696e7420746f20746865207a65726f2061646472657373604482015290519081900360640190fd5b61140c81610f9d565b1561145e576040805162461bcd60e51b815260206004820152601c60248201527f4552433732313a20746f6b656e20616c7265616479206d696e74656400000000604482015290519081900360640190fd5b61146a600083836106ec565b6001600160a01b0382166000908152600160205260409020611492908263ffffffff61155d16565b506114a56002828463ffffffff61156916565b5060405181906001600160a01b038416906000907fddf252ad1be2c89b69c2b068fc378daa952ba7f163c4a11628f55a4df523b3ef908290a45050565b6114eb82610f9d565b6115265760405162461bcd60e51b815260040180806020018281038252602c815260200180611e59602c913960400191505060405180910390fd5b600082815260086020908152604090912082516106ec92840190611bf9565b600061078183836118a8565b600061078183836118c0565b60006107818383611986565b600061126484846001600160a01b0385166119d0565b815460009082106115c15760405162461bcd60e51b8152600401808060200182810382526022815260200180611c926022913960400191505060405180910390fd5b8260000182815481106115d057fe5b9060005260206000200154905092915050565b8154600090819083106116275760405162461bcd60e51b8152600401808060200182810382526022815260200180611e0b6022913960400191505060405180910390fd5b600084600001848154811061163857fe5b906000526020600020906002020190508060000154816001015492509250509250929050565b600082815260018401602052604081205482816116f95760405162461bcd60e51b81526004018080602001828103825283818151815260200191508051906020019080838360005b838110156116be5781810151838201526020016116a6565b50505050905090810190601f1680156116eb5780820380516001836020036101000a031916815260200191505b509250505060405180910390fd5b5084600001600182038154811061170c57fe5b9060005260206000209060020201600101549150509392505050565b600061173c846001600160a01b0316611a67565b611748575060016110c9565b606061186e630a85bd0160e11b61175d610fb0565b88878760405160240180856001600160a01b03166001600160a01b03168152602001846001600160a01b03166001600160a01b0316815260200183815260200180602001828103825283818151815260200191508051906020019080838360005b838110156117d65781810151838201526020016117be565b50505050905090810190601f1680156118035780820380516001836020036101000a031916815260200191505b5095505050505050604051602081830303815290604052906001600160e01b0319166020820180516001600160e01b038381831617835250505050604051806060016040528060328152602001611cd8603291396001600160a01b038816919063ffffffff611a6d16565b9050600081806020019051602081101561188757600080fd5b50516001600160e01b031916630a85bd0160e11b1492505050949350505050565b60009081526001919091016020526040902054151590565b6000818152600183016020526040812054801561197c57835460001980830191908101906000908790839081106118f357fe5b906000526020600020015490508087600001848154811061191057fe5b60009182526020808320909101929092558281526001898101909252604090209084019055865487908061194057fe5b60019003818190600052602060002001600090559055866001016000878152602001908152602001600020600090556001945050505050610784565b6000915050610784565b600061199283836118a8565b6119c857508154600181810184556000848152602080822090930184905584548482528286019093526040902091909155610784565b506000610784565b600082815260018401602052604081205480611a35575050604080518082018252838152602080820184815286546001818101895560008981528481209551600290930290950191825591519082015586548684528188019092529290912055611267565b82856000016001830381548110611a4857fe5b9060005260206000209060020201600101819055506000915050611267565b3b151590565b6060611264848460008585611a8185611a67565b611ad2576040805162461bcd60e51b815260206004820152601d60248201527f416464726573733a2063616c6c20746f206e6f6e2d636f6e7472616374000000604482015290519081900360640190fd5b60006060866001600160a01b031685876040518082805190602001908083835b60208310611b115780518252601f199092019160209182019101611af2565b6001836020036101000a03801982511681845116808217855250505050505090500191505060006040518083038185875af1925050503d8060008114611b73576040519150601f19603f3d011682016040523d82523d6000602084013e611b78565b606091505b5091509150611b88828286611b93565b979650505050505050565b60608315611ba2575081611267565b825115611bb25782518084602001fd5b60405162461bcd60e51b81526020600482018181528451602484015284518593919283926044019190850190808383600083156116be5781810151838201526020016116a6565b828054600181600116156101000203166002900490600052602060002090601f016020900481019282601f10611c3a57805160ff1916838001178555611c67565b82800160010185558215611c67579182015b82811115611c67578251825591602001919060010190611c4c565b50611c73929150611c77565b5090565b6105b191905b80821115611c735760008155600101611c7d56fe456e756d657261626c655365743a20696e646578206f7574206f6620626f756e6473416c6c2031303020545454207469636b6574732068617665206265656e206d696e7465644552433732313a207472616e7366657220746f206e6f6e20455243373231526563656976657220696d706c656d656e7465724f776e61626c653a206e6577206f776e657220697320746865207a65726f20616464726573734552433732313a207472616e7366657220746f20746865207a65726f20616464726573734552433732313a206f70657261746f7220717565727920666f72206e6f6e6578697374656e7420746f6b656e4552433732313a20617070726f76652063616c6c6572206973206e6f74206f776e6572206e6f7220617070726f76656420666f7220616c6c4552433732313a2062616c616e636520717565727920666f7220746865207a65726f20616464726573734552433732313a206f776e657220717565727920666f72206e6f6e6578697374656e7420746f6b656e456e756d657261626c654d61703a20696e646578206f7574206f6620626f756e64734552433732313a20617070726f76656420717565727920666f72206e6f6e6578697374656e7420746f6b656e4552433732314d657461646174613a2055524920736574206f66206e6f6e6578697374656e7420746f6b656e516d556651614a517571515a4e68794b446d67784674716f366f45646f3873397065586a54656e7a3963506d346d4552433732313a207472616e73666572206f6620746f6b656e2074686174206973206e6f74206f776e4552433732314d657461646174613a2055524920717565727920666f72206e6f6e6578697374656e7420746f6b656e4552433732313a20617070726f76616c20746f2063757272656e74206f776e65724552433732313a207472616e736665722063616c6c6572206973206e6f74206f776e6572206e6f7220617070726f766564a26469706673582212207601dcd0e513390e114369da7c3993ab15437db22c9e52ade46c700ef1f5c20364736f6c6343000607003368747470733a2f2f676174657761792e70696e6174612e636c6f75642f697066732f",
  "linkReferences": {},
  "deployedLinkReferences": {}
}