{
  "contractName": "APIConsumer",
  "abi": [
    {
      "inputs": [
        {
          "internalType": "address",
          "name": "_oracle",
          "type": "address"
        },
        {
          "internalType": "bytes32",
          "name": "_jobId",
          "type": "bytes32"
        },
        {
          "internalType": "uint256",
          "name": "_fee",
          "type": "uint256"
        },
        {
          "internalType": "address",
          "name": "_link",
          "type": "address"
        }
      ],
      "stateMutability": "nonpayable",
      "type": "constructor"
    },
    {
      "anonymous": false,
      "inputs": [
        {
          "indexed": true,
          "internalType": "bytes32",
          "name": "id",
          "type": "bytes32"
        }
      ],
      "name": "ChainlinkCancelled",
      "type": "event"
    },
    {
      "anonymous": false,
      "inputs": [
        {
          "indexed": true,
          "internalType": "bytes32",
          "name": "id",
          "type": "bytes32"
        }
      ],
      "name": "ChainlinkFulfilled",
      "type": "event"
    },
    {
      "anonymous": false,
      "inputs": [
        {
          "indexed": true,
          "internalType": "bytes32",
          "name": "id",
          "type": "bytes32"
        }
      ],
      "name": "ChainlinkRequested",
      "type": "event"
    },
    {
      "anonymous": false,
      "inputs": [
        {
          "indexed": false,
          "internalType": "uint256",
          "name": "volume",
          "type": "uint256"
        }
      ],
      "name": "DataFullfilled",
      "type": "event"
    },
    {
      "inputs": [],
      "name": "volume",
      "outputs": [
        {
          "internalType": "uint256",
          "name": "",
          "type": "uint256"
        }
      ],
      "stateMutability": "view",
      "type": "function",
      "constant": true
    },
    {
      "inputs": [],
      "name": "requestVolumeData",
      "outputs": [
        {
          "internalType": "bytes32",
          "name": "requestId",
          "type": "bytes32"
        }
      ],
      "stateMutability": "nonpayable",
      "type": "function"
    },
    {
      "inputs": [
        {
          "internalType": "bytes32",
          "name": "_requestId",
          "type": "bytes32"
        },
        {
          "internalType": "uint256",
          "name": "_volume",
          "type": "uint256"
        }
      ],
      "name": "fulfill",
      "outputs": [],
      "stateMutability": "nonpayable",
      "type": "function"
    },
    {
      "inputs": [],
      "name": "withdrawLink",
      "outputs": [],
      "stateMutability": "nonpayable",
      "type": "function"
    }
  ],
  "bytecode": "0x60e060405260016004553480156200001657600080fd5b5060405162001a6238038062001a6283398181016040528101906200003c9190620002a3565b600073ffffffffffffffffffffffffffffffffffffffff168173ffffffffffffffffffffffffffffffffffffffff1603620000875762000081620000e760201b60201c565b62000099565b62000098816200017f60201b60201c565b5b8373ffffffffffffffffffffffffffffffffffffffff1660808173ffffffffffffffffffffffffffffffffffffffff16815250508260a081815250508160c081815250505050505062000347565b6200017d73c89bd4e1632d3a43cb03aaad5262cbe4038bc57173ffffffffffffffffffffffffffffffffffffffff166338cc48316040518163ffffffff1660e01b8152600401602060405180830381865afa1580156200014b573d6000803e3d6000fd5b505050506040513d601f19601f8201168201806040525081019062000171919062000315565b6200017f60201b60201c565b565b80600260006101000a81548173ffffffffffffffffffffffffffffffffffffffff021916908373ffffffffffffffffffffffffffffffffffffffff16021790555050565b600080fd5b600073ffffffffffffffffffffffffffffffffffffffff82169050919050565b6000620001f582620001c8565b9050919050565b6200020781620001e8565b81146200021357600080fd5b50565b6000815190506200022781620001fc565b92915050565b6000819050919050565b62000242816200022d565b81146200024e57600080fd5b50565b600081519050620002628162000237565b92915050565b6000819050919050565b6200027d8162000268565b81146200028957600080fd5b50565b6000815190506200029d8162000272565b92915050565b60008060008060808587031215620002c057620002bf620001c3565b5b6000620002d08782880162000216565b9450506020620002e38782880162000251565b9350506040620002f6878288016200028c565b9250506060620003098782880162000216565b91505092959194509250565b6000602082840312156200032e576200032d620001c3565b5b60006200033e8482850162000216565b91505092915050565b60805160a05160c0516116eb620003776000396000610393015260006102050152600061037101526116eb6000f3fe608060405234801561001057600080fd5b506004361061004c5760003560e01c80634357855e146100515780636021abac1461006d5780638dc654a21461008b578063c618a1e414610095575b600080fd5b61006b60048036038101906100669190610e86565b6100b3565b005b6100756101fd565b6040516100829190610ed5565b60405180910390f35b6100936103be565b005b61009d6103c0565b6040516100aa9190610eff565b60405180910390f35b816005600082815260200190815260200160002060009054906101000a900473ffffffffffffffffffffffffffffffffffffffff1673ffffffffffffffffffffffffffffffffffffffff163373ffffffffffffffffffffffffffffffffffffffff1614610155576040517f08c379a000000000000000000000000000000000000000000000000000000000815260040161014c90610f9d565b60405180910390fd5b6005600082815260200190815260200160002060006101000a81549073ffffffffffffffffffffffffffffffffffffffff0219169055807f7cc135e0cebb02c3480ae5d74d377283180a2601f8f644edf7987b009316c63a60405160405180910390a2816006819055507f221d507243adddffe789060be0e69bff4be830996c6b265bfda5083d86f886326006546040516101f09190610eff565b60405180910390a1505050565b6000806102327f000000000000000000000000000000000000000000000000000000000000000030634357855e60e01b6103c6565b90506102966040518060400160405280600381526020017f676574000000000000000000000000000000000000000000000000000000000081525060405180608001604052806049815260200161166d60499139836103f79092919063ffffffff16565b6103156040518060400160405280600481526020017f70617468000000000000000000000000000000000000000000000000000000008152506040518060400160405280601881526020017f5241572c4554482c5553442c564f4c554d453234484f55520000000000000000815250836103f79092919063ffffffff16565b6000670de0b6b3a7640000905061036c6040518060400160405280600581526020017f74696d6573000000000000000000000000000000000000000000000000000000815250828461042a9092919063ffffffff16565b6103b77f0000000000000000000000000000000000000000000000000000000000000000837f000000000000000000000000000000000000000000000000000000000000000061045d565b9250505090565b565b60065481565b6103ce610d8e565b6103d6610d8e565b6103ed85858584610529909392919063ffffffff16565b9150509392505050565b61040e8284608001516105d990919063ffffffff16565b6104258184608001516105d990919063ffffffff16565b505050565b6104418284608001516105d990919063ffffffff16565b6104588184608001516105fe90919063ffffffff16565b505050565b60008060045490506001816104729190610fec565b6004819055506000634042994660e01b60008087600001513089604001518760018c60800151600001516040516024016104b398979695949392919061112c565b604051602081830303815290604052907bffffffffffffffffffffffffffffffffffffffffffffffffffffffff19166020820180517bffffffffffffffffffffffffffffffffffffffffffffffffffffffff8381831617835250505050905061051e868386846106ab565b925050509392505050565b610531610d8e565b6105418560800151610100610840565b508385600001818152505082856020019073ffffffffffffffffffffffffffffffffffffffff16908173ffffffffffffffffffffffffffffffffffffffff16815250508185604001907bffffffffffffffffffffffffffffffffffffffffffffffffffffffff191690817bffffffffffffffffffffffffffffffffffffffffffffffffffffffff191681525050849050949350505050565b6105e682600383516108aa565b6105f98183610a2f90919063ffffffff16565b505050565b7fffffffffffffffffffffffffffffffffffffffffffffffff0000000000000000811215610635576106308282610a51565b6106a7565b67ffffffffffffffff8113156106545761064f8282610ac8565b6106a6565b6000811261066d57610668826000836108aa565b6106a5565b6106a4826001837fffffffffffffffffffffffffffffffffffffffffffffffffffffffffffffffff61069f91906111bb565b6108aa565b5b5b5b5050565b600030846040516020016106c09291906112b7565b604051602081830303815290604052805190602001209050846005600083815260200190815260200160002060006101000a81548173ffffffffffffffffffffffffffffffffffffffff021916908373ffffffffffffffffffffffffffffffffffffffff160217905550807fb5e6e01e79f91267dc17b4e6314d5d4d03593d2ceee0fbb452b750bd70ea5af960405160405180910390a2600260009054906101000a900473ffffffffffffffffffffffffffffffffffffffff1673ffffffffffffffffffffffffffffffffffffffff16634000aea08685856040518463ffffffff1660e01b81526004016107b6939291906112e3565b6020604051808303816000875af11580156107d5573d6000803e3d6000fd5b505050506040513d601f19601f820116820180604052508101906107f99190611359565b610838576040517f08c379a000000000000000000000000000000000000000000000000000000000815260040161082f906113f8565b60405180910390fd5b949350505050565b610848610dfb565b60006020836108579190611447565b14610883576020826108699190611447565b60206108759190611478565b826108809190610fec565b91505b81836020018181525050604051808452600081528281016020016040525082905092915050565b60178167ffffffffffffffff16116108e1576108db8160058460ff16901b60ff161784610b1490919063ffffffff16565b50610a2a565b60ff8167ffffffffffffffff161161093757610910601860058460ff16901b1784610b1490919063ffffffff16565b506109318167ffffffffffffffff16600185610b349092919063ffffffff16565b50610a29565b61ffff8167ffffffffffffffff161161098e57610967601960058460ff16901b1784610b1490919063ffffffff16565b506109888167ffffffffffffffff16600285610b349092919063ffffffff16565b50610a28565b63ffffffff8167ffffffffffffffff16116109e7576109c0601a60058460ff16901b1784610b1490919063ffffffff16565b506109e18167ffffffffffffffff16600485610b349092919063ffffffff16565b50610a27565b610a04601b60058460ff16901b1784610b1490919063ffffffff16565b50610a258167ffffffffffffffff16600885610b349092919063ffffffff16565b505b5b5b5b505050565b610a37610dfb565b610a4983846000015151848551610b56565b905092915050565b610a6f60036005600660ff16901b1783610b1490919063ffffffff16565b50610ac482827fffffffffffffffffffffffffffffffffffffffffffffffffffffffffffffffff610aa091906111bb565b604051602001610ab09190610eff565b604051602081830303815290604052610c45565b5050565b610ae660026005600660ff16901b1783610b1490919063ffffffff16565b50610b108282604051602001610afc9190610eff565b604051602081830303815290604052610c45565b5050565b610b1c610dfb565b610b2c8384600001515184610c6a565b905092915050565b610b3c610dfb565b610b4d848560000151518585610cc0565b90509392505050565b610b5e610dfb565b8251821115610b6c57600080fd5b84602001518285610b7d9190610fec565b1115610bb257610bb1856002610ba288602001518887610b9d9190610fec565b610d4e565b610bac91906114ac565b610d6a565b5b600080865180518760208301019350808887011115610bd15787860182525b60208701925050505b60208410610c185780518252602082610bf39190610fec565b9150602081610c029190610fec565b9050602084610c119190611478565b9350610bda565b60006001856020036101000a03905080198251168184511681811785525050508692505050949350505050565b610c5282600283516108aa565b610c658183610a2f90919063ffffffff16565b505050565b610c72610dfb565b83602001518310610c9857610c978460028660200151610c9291906114ac565b610d6a565b5b83518051602085830101848153818603610cb3576001820183525b5050508390509392505050565b610cc8610dfb565b84602001518483610cd99190610fec565b1115610d0157610d008560028685610cf19190610fec565b610cfb91906114ac565b610d6a565b5b6000600183610100610d139190611621565b610d1d9190611478565b90508551838682010185831982511617815281518588011115610d405784870182525b505085915050949350505050565b600081831115610d6057829050610d64565b8190505b92915050565b600082600001519050610d7d8383610840565b50610d888382610a2f565b50505050565b6040518060a0016040528060008019168152602001600073ffffffffffffffffffffffffffffffffffffffff16815260200160007bffffffffffffffffffffffffffffffffffffffffffffffffffffffff1916815260200160008152602001610df5610dfb565b81525090565b604051806040016040528060608152602001600081525090565b600080fd5b6000819050919050565b610e2d81610e1a565b8114610e3857600080fd5b50565b600081359050610e4a81610e24565b92915050565b6000819050919050565b610e6381610e50565b8114610e6e57600080fd5b50565b600081359050610e8081610e5a565b92915050565b60008060408385031215610e9d57610e9c610e15565b5b6000610eab85828601610e3b565b9250506020610ebc85828601610e71565b9150509250929050565b610ecf81610e1a565b82525050565b6000602082019050610eea6000830184610ec6565b92915050565b610ef981610e50565b82525050565b6000602082019050610f146000830184610ef0565b92915050565b600082825260208201905092915050565b7f536f75726365206d75737420626520746865206f7261636c65206f662074686560008201527f2072657175657374000000000000000000000000000000000000000000000000602082015250565b6000610f87602883610f1a565b9150610f9282610f2b565b604082019050919050565b60006020820190508181036000830152610fb681610f7a565b9050919050565b7f4e487b7100000000000000000000000000000000000000000000000000000000600052601160045260246000fd5b6000610ff782610e50565b915061100283610e50565b925082820190508082111561101a57611019610fbd565b5b92915050565b600073ffffffffffffffffffffffffffffffffffffffff82169050919050565b600061104b82611020565b9050919050565b61105b81611040565b82525050565b60007fffffffff0000000000000000000000000000000000000000000000000000000082169050919050565b61109681611061565b82525050565b600081519050919050565b600082825260208201905092915050565b60005b838110156110d65780820151818401526020810190506110bb565b60008484015250505050565b6000601f19601f8301169050919050565b60006110fe8261109c565b61110881856110a7565b93506111188185602086016110b8565b611121816110e2565b840191505092915050565b600061010082019050611142600083018b611052565b61114f602083018a610ef0565b61115c6040830189610ec6565b6111696060830188611052565b611176608083018761108d565b61118360a0830186610ef0565b61119060c0830185610ef0565b81810360e08301526111a281846110f3565b90509998505050505050505050565b6000819050919050565b60006111c6826111b1565b91506111d1836111b1565b92508282039050818112600084121682821360008512151617156111f8576111f7610fbd565b5b92915050565b6000819050919050565b600061122361121e61121984611020565b6111fe565b611020565b9050919050565b600061123582611208565b9050919050565b60006112478261122a565b9050919050565b60008160601b9050919050565b60006112668261124e565b9050919050565b60006112788261125b565b9050919050565b61129061128b8261123c565b61126d565b82525050565b6000819050919050565b6112b16112ac82610e50565b611296565b82525050565b60006112c3828561127f565b6014820191506112d382846112a0565b6020820191508190509392505050565b60006060820190506112f86000830186611052565b6113056020830185610ef0565b818103604083015261131781846110f3565b9050949350505050565b60008115159050919050565b61133681611321565b811461134157600080fd5b50565b6000815190506113538161132d565b92915050565b60006020828403121561136f5761136e610e15565b5b600061137d84828501611344565b91505092915050565b7f756e61626c6520746f207472616e73666572416e6443616c6c20746f206f726160008201527f636c650000000000000000000000000000000000000000000000000000000000602082015250565b60006113e2602383610f1a565b91506113ed82611386565b604082019050919050565b60006020820190508181036000830152611411816113d5565b9050919050565b7f4e487b7100000000000000000000000000000000000000000000000000000000600052601260045260246000fd5b600061145282610e50565b915061145d83610e50565b92508261146d5761146c611418565b5b828206905092915050565b600061148382610e50565b915061148e83610e50565b92508282039050818111156114a6576114a5610fbd565b5b92915050565b60006114b782610e50565b91506114c283610e50565b92508282026114d081610e50565b915082820484148315176114e7576114e6610fbd565b5b5092915050565b60008160011c9050919050565b6000808291508390505b60018511156115455780860481111561152157611520610fbd565b5b60018516156115305780820291505b808102905061153e856114ee565b9450611505565b94509492505050565b60008261155e576001905061161a565b8161156c576000905061161a565b8160018114611582576002811461158c576115bb565b600191505061161a565b60ff84111561159e5761159d610fbd565b5b8360020a9150848211156115b5576115b4610fbd565b5b5061161a565b5060208310610133831016604e8410600b84101617156115f05782820a9050838111156115eb576115ea610fbd565b5b61161a565b6115fd84848460016114fb565b9250905081840481111561161457611613610fbd565b5b81810290505b9392505050565b600061162c82610e50565b915061163783610e50565b92506116647fffffffffffffffffffffffffffffffffffffffffffffffffffffffffffffffff848461154e565b90509291505056fe68747470733a2f2f6d696e2d6170692e63727970746f636f6d706172652e636f6d2f646174612f70726963656d756c746966756c6c3f6673796d733d455448267473796d733d555344a264697066735822122060b7c0fc7e8e51b1dc73762cbd729c77d4f634877aea9e18df09f41553e6808a64736f6c63430008130033",
  "immutableReferences": {
    "5861": [
      {
        "length": 32,
        "start": 881
      }
    ],
    "5863": [
      {
        "length": 32,
        "start": 517
      }
    ],
    "5865": [
      {
        "length": 32,
        "start": 915
      }
    ]
  },
  "source": "// SPDX-License-Identifier: MIT\npragma solidity ^0.8.7;\n\nimport \"@chainlink/contracts/src/v0.8/ChainlinkClient.sol\";\n\n/**\n * @title The APIConsumer contract\n * @notice An API Consumer contract that makes GET requests to obtain 24h trading volume of ETH in USD\n */\ncontract APIConsumer is ChainlinkClient {\n    using Chainlink for Chainlink.Request;\n\n    uint256 public volume;\n    address private immutable oracle;\n    bytes32 private immutable jobId;\n    uint256 private immutable fee;\n\n    event DataFullfilled(uint256 volume);\n\n    /**\n     * @notice Executes once when a contract is created to initialize state variables\n     *\n     * @param _oracle - address of the specific Chainlink node that a contract makes an API call from\n     * @param _jobId - specific job for :_oracle: to run; each job is unique and returns different types of data\n     * @param _fee - node operator price per API call / data request\n     * @param _link - LINK token address on the corresponding network\n     *\n     * Network: Rinkeby\n     * Oracle: 0xc57b33452b4f7bb189bb5afae9cc4aba1f7a4fd8\n     * Job ID: 6b88e0402e5d415eb946e528b8e0c7ba\n     * Fee: 0.1 LINK\n     */\n    constructor(\n        address _oracle,\n        bytes32 _jobId,\n        uint256 _fee,\n        address _link\n    ) {\n        if (_link == address(0)) {\n            setPublicChainlinkToken();\n        } else {\n            setChainlinkToken(_link);\n        }\n        oracle = _oracle;\n        jobId = _jobId;\n        fee = _fee;\n    }\n\n    /**\n     * @notice Creates a Chainlink request to retrieve API response, find the target\n     * data, then multiply by 1000000000000000000 (to remove decimal places from data).\n     *\n     * @return requestId - id of the request\n     */\n    function requestVolumeData() public returns (bytes32 requestId) {\n        Chainlink.Request memory request = buildChainlinkRequest(\n            jobId,\n            address(this),\n            this.fulfill.selector\n        );\n\n        // Set the URL to perform the GET request on\n        request.add(\n            \"get\",\n            \"https://min-api.cryptocompare.com/data/pricemultifull?fsyms=ETH&tsyms=USD\"\n        );\n\n        // Set the path to find the desired data in the API response, where the response format is:\n        // {\"RAW\":\n        //   {\"ETH\":\n        //    {\"USD\":\n        //     {\n        //      \"VOLUME24HOUR\": xxx.xxx,\n        //     }\n        //    }\n        //   }\n        //  }\n        // request.add(\"path\", \"RAW.ETH.USD.VOLUME24HOUR\"); // Chainlink nodes prior to 1.0.0 support this format\n        request.add(\"path\", \"RAW,ETH,USD,VOLUME24HOUR\"); // Chainlink nodes 1.0.0 and later support this format\n\n        // Multiply the result by 1000000000000000000 to remove decimals\n        int256 timesAmount = 10**18;\n        request.addInt(\"times\", timesAmount);\n\n        // Sends the request\n        return sendChainlinkRequestTo(oracle, request, fee);\n    }\n\n    /**\n     * @notice Receives the response in the form of uint256\n     *\n     * @param _requestId - id of the request\n     * @param _volume - response; requested 24h trading volume of ETH in USD\n     */\n    function fulfill(bytes32 _requestId, uint256 _volume)\n        public\n        recordChainlinkFulfillment(_requestId)\n    {\n        volume = _volume;\n        emit DataFullfilled(volume);\n    }\n\n    /**\n     * @notice Witdraws LINK from the contract\n     * @dev Implement a withdraw function to avoid locking your LINK in the contract\n     */\n    function withdrawLink() external {}\n}\n",
  "sourcePath": "/Users/llow/Desktop/TATOOINE/contracts/APIConsumer.sol",
  "compiler": {
    "name": "solc",
    "version": "0.8.19+commit.7dd6d404.Emscripten.clang"
  },
  "schemaVersion": "3.4.13",
  "updatedAt": "2023-03-15T08:04:17.689Z",
  "networkType": "ethereum",
  "devdoc": {
    "kind": "dev",
    "methods": {
      "constructor": {
        "params": {
          "_fee": "- node operator price per API call / data request",
          "_jobId": "- specific job for :_oracle: to run; each job is unique and returns different types of data",
          "_link": "- LINK token address on the corresponding network Network: Rinkeby Oracle: 0xc57b33452b4f7bb189bb5afae9cc4aba1f7a4fd8 Job ID: 6b88e0402e5d415eb946e528b8e0c7ba Fee: 0.1 LINK",
          "_oracle": "- address of the specific Chainlink node that a contract makes an API call from"
        }
      },
      "fulfill(bytes32,uint256)": {
        "params": {
          "_requestId": "- id of the request",
          "_volume": "- response; requested 24h trading volume of ETH in USD"
        }
      },
      "requestVolumeData()": {
        "returns": {
          "requestId": "- id of the request"
        }
      },
      "withdrawLink()": {
        "details": "Implement a withdraw function to avoid locking your LINK in the contract"
      }
    },
    "title": "The APIConsumer contract",
    "version": 1
  },
  "userdoc": {
    "kind": "user",
    "methods": {
      "constructor": {
        "notice": "Executes once when a contract is created to initialize state variables"
      },
      "fulfill(bytes32,uint256)": {
        "notice": "Receives the response in the form of uint256"
      },
      "requestVolumeData()": {
        "notice": "Creates a Chainlink request to retrieve API response, find the target data, then multiply by 1000000000000000000 (to remove decimal places from data)."
      },
      "withdrawLink()": {
        "notice": "Witdraws LINK from the contract"
      }
    },
    "notice": "An API Consumer contract that makes GET requests to obtain 24h trading volume of ETH in USD",
    "version": 1
  }
}