{
  "contractName": "RandomNumberConsumerV2",
  "abi": [
    {
      "inputs": [
        {
          "internalType": "uint64",
          "name": "subscriptionId",
          "type": "uint64"
        },
        {
          "internalType": "address",
          "name": "vrfCoordinator",
          "type": "address"
        },
        {
          "internalType": "bytes32",
          "name": "keyHash",
          "type": "bytes32"
        }
      ],
      "stateMutability": "nonpayable",
      "type": "constructor"
    },
    {
      "inputs": [
        {
          "internalType": "address",
          "name": "have",
          "type": "address"
        },
        {
          "internalType": "address",
          "name": "want",
          "type": "address"
        }
      ],
      "name": "OnlyCoordinatorCanFulfill",
      "type": "error"
    },
    {
      "anonymous": false,
      "inputs": [
        {
          "indexed": false,
          "internalType": "uint256[]",
          "name": "randomWords",
          "type": "uint256[]"
        }
      ],
      "name": "ReturnedRandomness",
      "type": "event"
    },
    {
      "inputs": [
        {
          "internalType": "uint256",
          "name": "requestId",
          "type": "uint256"
        },
        {
          "internalType": "uint256[]",
          "name": "randomWords",
          "type": "uint256[]"
        }
      ],
      "name": "rawFulfillRandomWords",
      "outputs": [],
      "stateMutability": "nonpayable",
      "type": "function"
    },
    {
      "inputs": [
        {
          "internalType": "uint256",
          "name": "",
          "type": "uint256"
        }
      ],
      "name": "s_randomWords",
      "outputs": [
        {
          "internalType": "uint256",
          "name": "",
          "type": "uint256"
        }
      ],
      "stateMutability": "view",
      "type": "function",
      "constant": true
    },
    {
      "inputs": [],
      "name": "s_requestId",
      "outputs": [
        {
          "internalType": "uint256",
          "name": "",
          "type": "uint256"
        }
      ],
      "stateMutability": "view",
      "type": "function",
      "constant": true
    },
    {
      "inputs": [],
      "name": "requestRandomWords",
      "outputs": [],
      "stateMutability": "nonpayable",
      "type": "function"
    },
    {
      "inputs": [],
      "name": "getSubscriptionId",
      "outputs": [
        {
          "internalType": "uint64",
          "name": "",
          "type": "uint64"
        }
      ],
      "stateMutability": "view",
      "type": "function",
      "constant": true
    }
  ],
  "bytecode": "0x6101006040523480156200001257600080fd5b5060405162000b4838038062000b488339818101604052810190620000389190620001fa565b818073ffffffffffffffffffffffffffffffffffffffff1660808173ffffffffffffffffffffffffffffffffffffffff1681525050508173ffffffffffffffffffffffffffffffffffffffff1660a08173ffffffffffffffffffffffffffffffffffffffff16815250508060e0818152505033600260006101000a81548173ffffffffffffffffffffffffffffffffffffffff021916908373ffffffffffffffffffffffffffffffffffffffff1602179055508267ffffffffffffffff1660c08167ffffffffffffffff168152505050505062000256565b600080fd5b600067ffffffffffffffff82169050919050565b620001348162000115565b81146200014057600080fd5b50565b600081519050620001548162000129565b92915050565b600073ffffffffffffffffffffffffffffffffffffffff82169050919050565b600062000187826200015a565b9050919050565b62000199816200017a565b8114620001a557600080fd5b50565b600081519050620001b9816200018e565b92915050565b6000819050919050565b620001d481620001bf565b8114620001e057600080fd5b50565b600081519050620001f481620001c9565b92915050565b60008060006060848603121562000216576200021562000110565b5b6000620002268682870162000143565b93505060206200023986828701620001a8565b92505060406200024c86828701620001e3565b9150509250925092565b60805160a05160c05160e0516108ab6200029d60003960006102140152600081816101b20152610235015260006101d801526000818160f0015261014401526108ab6000f3fe608060405234801561001057600080fd5b50600436106100575760003560e01c80631fe543e31461005c578063de3d9fb714610078578063e0c8628914610096578063e89e106a146100a0578063f6eaffc8146100be575b600080fd5b61007660048036038101906100719190610550565b6100ee565b005b6100806101ae565b60405161008d91906105cf565b60405180910390f35b61009e6101d6565b005b6100a86102c7565b6040516100b591906105f9565b60405180910390f35b6100d860048036038101906100d39190610614565b6102cd565b6040516100e591906105f9565b60405180910390f35b7f000000000000000000000000000000000000000000000000000000000000000073ffffffffffffffffffffffffffffffffffffffff163373ffffffffffffffffffffffffffffffffffffffff16146101a057337f00000000000000000000000000000000000000000000000000000000000000006040517f1cf993f4000000000000000000000000000000000000000000000000000000008152600401610197929190610682565b60405180910390fd5b6101aa82826102f1565b5050565b60007f0000000000000000000000000000000000000000000000000000000000000000905090565b7f000000000000000000000000000000000000000000000000000000000000000073ffffffffffffffffffffffffffffffffffffffff16635d3b1d307f00000000000000000000000000000000000000000000000000000000000000007f00000000000000000000000000000000000000000000000000000000000000006003620186a060026040518663ffffffff1660e01b815260040161027c959493929190610700565b6020604051808303816000875af115801561029b573d6000803e3d6000fd5b505050506040513d601f19601f820116820180604052508101906102bf9190610768565b600181905550565b60015481565b600081815481106102dd57600080fd5b906000526020600020016000915090505481565b8060009080519060200190610307929190610343565b507fefb16d61046900da527008568620fb9f8420e2f5ed4de3bfbded5035c9362b0e816040516103379190610853565b60405180910390a15050565b82805482825590600052602060002090810192821561037f579160200282015b8281111561037e578251825591602001919060010190610363565b5b50905061038c9190610390565b5090565b5b808211156103a9576000816000905550600101610391565b5090565b6000604051905090565b600080fd5b600080fd5b6000819050919050565b6103d4816103c1565b81146103df57600080fd5b50565b6000813590506103f1816103cb565b92915050565b600080fd5b6000601f19601f8301169050919050565b7f4e487b7100000000000000000000000000000000000000000000000000000000600052604160045260246000fd5b610445826103fc565b810181811067ffffffffffffffff821117156104645761046361040d565b5b80604052505050565b60006104776103ad565b9050610483828261043c565b919050565b600067ffffffffffffffff8211156104a3576104a261040d565b5b602082029050602081019050919050565b600080fd5b60006104cc6104c784610488565b61046d565b905080838252602082019050602084028301858111156104ef576104ee6104b4565b5b835b81811015610518578061050488826103e2565b8452602084019350506020810190506104f1565b5050509392505050565b600082601f830112610537576105366103f7565b5b81356105478482602086016104b9565b91505092915050565b60008060408385031215610567576105666103b7565b5b6000610575858286016103e2565b925050602083013567ffffffffffffffff811115610596576105956103bc565b5b6105a285828601610522565b9150509250929050565b600067ffffffffffffffff82169050919050565b6105c9816105ac565b82525050565b60006020820190506105e460008301846105c0565b92915050565b6105f3816103c1565b82525050565b600060208201905061060e60008301846105ea565b92915050565b60006020828403121561062a576106296103b7565b5b6000610638848285016103e2565b91505092915050565b600073ffffffffffffffffffffffffffffffffffffffff82169050919050565b600061066c82610641565b9050919050565b61067c81610661565b82525050565b60006040820190506106976000830185610673565b6106a46020830184610673565b9392505050565b6000819050919050565b6106be816106ab565b82525050565b600061ffff82169050919050565b6106db816106c4565b82525050565b600063ffffffff82169050919050565b6106fa816106e1565b82525050565b600060a08201905061071560008301886106b5565b61072260208301876105c0565b61072f60408301866106d2565b61073c60608301856106f1565b61074960808301846106f1565b9695505050505050565b600081519050610762816103cb565b92915050565b60006020828403121561077e5761077d6103b7565b5b600061078c84828501610753565b91505092915050565b600081519050919050565b600082825260208201905092915050565b6000819050602082019050919050565b6107ca816103c1565b82525050565b60006107dc83836107c1565b60208301905092915050565b6000602082019050919050565b600061080082610795565b61080a81856107a0565b9350610815836107b1565b8060005b8381101561084657815161082d88826107d0565b9750610838836107e8565b925050600181019050610819565b5085935050505092915050565b6000602082019050818103600083015261086d81846107f5565b90509291505056fea2646970667358221220df3d05e8eedabc2a4246ad196b0c5f2fd130037574445e2e494ba8f251f2cb7364736f6c63430008130033",
  "immutableReferences": {
    "872": [
      {
        "length": 32,
        "start": 240
      },
      {
        "length": 32,
        "start": 324
      }
    ],
    "6258": [
      {
        "length": 32,
        "start": 472
      }
    ],
    "6260": [
      {
        "length": 32,
        "start": 434
      },
      {
        "length": 32,
        "start": 565
      }
    ],
    "6262": [
      {
        "length": 32,
        "start": 532
      }
    ]
  },
  "source": "// SPDX-License-Identifier: MIT\n// An example of a consumer contract that relies on a subscription for funding.\npragma solidity ^0.8.7;\n\nimport \"@chainlink/contracts/src/v0.8/interfaces/VRFCoordinatorV2Interface.sol\";\nimport \"@chainlink/contracts/src/v0.8/VRFConsumerBaseV2.sol\";\n\n/**\n * @title The RandomNumberConsumerV2 contract\n * @notice A contract that gets random values from Chainlink VRF V2\n */\ncontract RandomNumberConsumerV2 is VRFConsumerBaseV2 {\n    VRFCoordinatorV2Interface immutable COORDINATOR;\n\n    // Your subscription ID.\n    uint64 immutable s_subscriptionId;\n\n    // The gas lane to use, which specifies the maximum gas price to bump to.\n    // For a list of available gas lanes on each network,\n    // see https://docs.chain.link/docs/vrf-contracts/#configurations\n    bytes32 immutable s_keyHash;\n\n    // Depends on the number of requested values that you want sent to the\n    // fulfillRandomWords() function. Storing each word costs about 20,000 gas,\n    // so 100,000 is a safe default for this example contract. Test and adjust\n    // this limit based on the network that you select, the size of the request,\n    // and the processing of the callback request in the fulfillRandomWords()\n    // function.\n    uint32 constant CALLBACK_GAS_LIMIT = 100000;\n\n    // The default is 3, but you can set this higher.\n    uint16 constant REQUEST_CONFIRMATIONS = 3;\n\n    // For this example, retrieve 2 random values in one request.\n    // Cannot exceed VRFCoordinatorV2.MAX_NUM_WORDS.\n    uint32 constant NUM_WORDS = 2;\n\n    uint256[] public s_randomWords;\n    uint256 public s_requestId;\n    address s_owner;\n\n    event ReturnedRandomness(uint256[] randomWords);\n\n    /**\n     * @notice Constructor inherits VRFConsumerBaseV2\n     *\n     * @param subscriptionId - the subscription ID that this contract uses for funding requests\n     * @param vrfCoordinator - coordinator, check https://docs.chain.link/docs/vrf-contracts/#configurations\n     * @param keyHash - the gas lane to use, which specifies the maximum gas price to bump to\n     */\n    constructor(\n        uint64 subscriptionId,\n        address vrfCoordinator,\n        bytes32 keyHash\n    ) VRFConsumerBaseV2(vrfCoordinator) {\n        COORDINATOR = VRFCoordinatorV2Interface(vrfCoordinator);\n        s_keyHash = keyHash;\n        s_owner = msg.sender;\n        s_subscriptionId = subscriptionId;\n    }\n\n    /**\n     * @notice Requests randomness\n     * Assumes the subscription is funded sufficiently; \"Words\" refers to unit of data in Computer Science\n     */\n    function requestRandomWords() external {\n        // Will revert if subscription is not set and funded.\n        s_requestId = COORDINATOR.requestRandomWords(\n            s_keyHash,\n            s_subscriptionId,\n            REQUEST_CONFIRMATIONS,\n            CALLBACK_GAS_LIMIT,\n            NUM_WORDS\n        );\n    }\n\n    /**\n     * @notice Callback function used by VRF Coordinator\n     *\n     * @param randomWords - array of random results from VRF Coordinator\n     */\n    function fulfillRandomWords(\n        uint256, /*requestId*/\n        uint256[] memory randomWords\n    ) internal override {\n        s_randomWords = randomWords;\n        emit ReturnedRandomness(randomWords);\n    }\n\n    function getSubscriptionId() public view returns (uint64) {\n        return s_subscriptionId;\n    }\n}\n",
  "sourcePath": "/Users/llow/Desktop/TATOOINE/contracts/RandomNumberConsumerV2.sol",
  "compiler": {
    "name": "solc",
    "version": "0.8.19+commit.7dd6d404.Emscripten.clang"
  },
  "schemaVersion": "3.4.13",
  "updatedAt": "2023-03-15T08:04:18.382Z",
  "networkType": "ethereum",
  "devdoc": {
    "kind": "dev",
    "methods": {
      "constructor": {
        "params": {
          "keyHash": "- the gas lane to use, which specifies the maximum gas price to bump to",
          "subscriptionId": "- the subscription ID that this contract uses for funding requests",
          "vrfCoordinator": "- coordinator, check https://docs.chain.link/docs/vrf-contracts/#configurations"
        }
      }
    },
    "title": "The RandomNumberConsumerV2 contract",
    "version": 1
  },
  "userdoc": {
    "kind": "user",
    "methods": {
      "constructor": {
        "notice": "Constructor inherits VRFConsumerBaseV2"
      },
      "requestRandomWords()": {
        "notice": "Requests randomness Assumes the subscription is funded sufficiently; \"Words\" refers to unit of data in Computer Science"
      }
    },
    "notice": "A contract that gets random values from Chainlink VRF V2",
    "version": 1
  }
}