{
  "contractName": "TravelNFT",
  "abi": [
    {
      "inputs": [],
      "stateMutability": "nonpayable",
      "type": "constructor"
    },
    {
      "anonymous": false,
      "inputs": [
        {
          "indexed": true,
          "internalType": "address",
          "name": "owner",
          "type": "address"
        },
        {
          "indexed": true,
          "internalType": "address",
          "name": "approved",
          "type": "address"
        },
        {
          "indexed": true,
          "internalType": "uint256",
          "name": "tokenId",
          "type": "uint256"
        }
      ],
      "name": "Approval",
      "type": "event"
    },
    {
      "anonymous": false,
      "inputs": [
        {
          "indexed": true,
          "internalType": "address",
          "name": "owner",
          "type": "address"
        },
        {
          "indexed": true,
          "internalType": "address",
          "name": "operator",
          "type": "address"
        },
        {
          "indexed": false,
          "internalType": "bool",
          "name": "approved",
          "type": "bool"
        }
      ],
      "name": "ApprovalForAll",
      "type": "event"
    },
    {
      "anonymous": false,
      "inputs": [
        {
          "indexed": true,
          "internalType": "address",
          "name": "from",
          "type": "address"
        },
        {
          "indexed": true,
          "internalType": "address",
          "name": "to",
          "type": "address"
        },
        {
          "indexed": true,
          "internalType": "uint256",
          "name": "tokenId",
          "type": "uint256"
        }
      ],
      "name": "Transfer",
      "type": "event"
    },
    {
      "inputs": [
        {
          "internalType": "address",
          "name": "to",
          "type": "address"
        },
        {
          "internalType": "uint256",
          "name": "tokenId",
          "type": "uint256"
        }
      ],
      "name": "approve",
      "outputs": [],
      "stateMutability": "nonpayable",
      "type": "function"
    },
    {
      "inputs": [
        {
          "internalType": "address",
          "name": "owner",
          "type": "address"
        }
      ],
      "name": "balanceOf",
      "outputs": [
        {
          "internalType": "uint256",
          "name": "",
          "type": "uint256"
        }
      ],
      "stateMutability": "view",
      "type": "function"
    },
    {
      "inputs": [
        {
          "internalType": "uint256",
          "name": "tokenId",
          "type": "uint256"
        }
      ],
      "name": "getApproved",
      "outputs": [
        {
          "internalType": "address",
          "name": "",
          "type": "address"
        }
      ],
      "stateMutability": "view",
      "type": "function"
    },
    {
      "inputs": [
        {
          "internalType": "address",
          "name": "owner",
          "type": "address"
        },
        {
          "internalType": "address",
          "name": "operator",
          "type": "address"
        }
      ],
      "name": "isApprovedForAll",
      "outputs": [
        {
          "internalType": "bool",
          "name": "",
          "type": "bool"
        }
      ],
      "stateMutability": "view",
      "type": "function"
    },
    {
      "inputs": [],
      "name": "name",
      "outputs": [
        {
          "internalType": "string",
          "name": "",
          "type": "string"
        }
      ],
      "stateMutability": "view",
      "type": "function"
    },
    {
      "inputs": [
        {
          "internalType": "uint256",
          "name": "tokenId",
          "type": "uint256"
        }
      ],
      "name": "ownerOf",
      "outputs": [
        {
          "internalType": "address",
          "name": "",
          "type": "address"
        }
      ],
      "stateMutability": "view",
      "type": "function"
    },
    {
      "inputs": [
        {
          "internalType": "address",
          "name": "from",
          "type": "address"
        },
        {
          "internalType": "address",
          "name": "to",
          "type": "address"
        },
        {
          "internalType": "uint256",
          "name": "tokenId",
          "type": "uint256"
        }
      ],
      "name": "safeTransferFrom",
      "outputs": [],
      "stateMutability": "nonpayable",
      "type": "function"
    },
    {
      "inputs": [
        {
          "internalType": "address",
          "name": "from",
          "type": "address"
        },
        {
          "internalType": "address",
          "name": "to",
          "type": "address"
        },
        {
          "internalType": "uint256",
          "name": "tokenId",
          "type": "uint256"
        },
        {
          "internalType": "bytes",
          "name": "data",
          "type": "bytes"
        }
      ],
      "name": "safeTransferFrom",
      "outputs": [],
      "stateMutability": "nonpayable",
      "type": "function"
    },
    {
      "inputs": [
        {
          "internalType": "address",
          "name": "operator",
          "type": "address"
        },
        {
          "internalType": "bool",
          "name": "approved",
          "type": "bool"
        }
      ],
      "name": "setApprovalForAll",
      "outputs": [],
      "stateMutability": "nonpayable",
      "type": "function"
    },
    {
      "inputs": [
        {
          "internalType": "bytes4",
          "name": "interfaceId",
          "type": "bytes4"
        }
      ],
      "name": "supportsInterface",
      "outputs": [
        {
          "internalType": "bool",
          "name": "",
          "type": "bool"
        }
      ],
      "stateMutability": "view",
      "type": "function"
    },
    {
      "inputs": [],
      "name": "symbol",
      "outputs": [
        {
          "internalType": "string",
          "name": "",
          "type": "string"
        }
      ],
      "stateMutability": "view",
      "type": "function"
    },
    {
      "inputs": [
        {
          "internalType": "uint256",
          "name": "tokenId",
          "type": "uint256"
        }
      ],
      "name": "tokenURI",
      "outputs": [
        {
          "internalType": "string",
          "name": "",
          "type": "string"
        }
      ],
      "stateMutability": "view",
      "type": "function"
    },
    {
      "inputs": [
        {
          "internalType": "address",
          "name": "from",
          "type": "address"
        },
        {
          "internalType": "address",
          "name": "to",
          "type": "address"
        },
        {
          "internalType": "uint256",
          "name": "tokenId",
          "type": "uint256"
        }
      ],
      "name": "transferFrom",
      "outputs": [],
      "stateMutability": "nonpayable",
      "type": "function"
    },
    {
      "inputs": [
        {
          "internalType": "string",
          "name": "name",
          "type": "string"
        },
        {
          "internalType": "string",
          "name": "imageURI",
          "type": "string"
        }
      ],
      "name": "mintNFT",
      "outputs": [
        {
          "internalType": "uint256",
          "name": "",
          "type": "uint256"
        }
      ],
      "stateMutability": "nonpayable",
      "type": "function"
    },
    {
      "inputs": [
        {
          "internalType": "uint256",
          "name": "tokenId",
          "type": "uint256"
        }
      ],
      "name": "getLocation",
      "outputs": [
        {
          "internalType": "string",
          "name": "",
          "type": "string"
        },
        {
          "internalType": "string",
          "name": "",
          "type": "string"
        }
      ],
      "stateMutability": "view",
      "type": "function"
    }
  ],
  "bytecode": "0x60806040523480156200001157600080fd5b506040518060400160405280600981526020017f54726176656c4e465400000000000000000000000000000000000000000000008152506040518060400160405280600481526020017f544e46540000000000000000000000000000000000000000000000000000000081525081600090816200008f919062000324565b508060019081620000a1919062000324565b5050506200040b565b600081519050919050565b7f4e487b7100000000000000000000000000000000000000000000000000000000600052604160045260246000fd5b7f4e487b7100000000000000000000000000000000000000000000000000000000600052602260045260246000fd5b600060028204905060018216806200012c57607f821691505b602082108103620001425762000141620000e4565b5b50919050565b60008190508160005260206000209050919050565b60006020601f8301049050919050565b600082821b905092915050565b600060088302620001ac7fffffffffffffffffffffffffffffffffffffffffffffffffffffffffffffffff826200016d565b620001b886836200016d565b95508019841693508086168417925050509392505050565b6000819050919050565b6000819050919050565b600062000205620001ff620001f984620001d0565b620001da565b620001d0565b9050919050565b6000819050919050565b6200022183620001e4565b6200023962000230826200020c565b8484546200017a565b825550505050565b600090565b6200025062000241565b6200025d81848462000216565b505050565b5b8181101562000285576200027960008262000246565b60018101905062000263565b5050565b601f821115620002d4576200029e8162000148565b620002a9846200015d565b81016020851015620002b9578190505b620002d1620002c8856200015d565b83018262000262565b50505b505050565b600082821c905092915050565b6000620002f960001984600802620002d9565b1980831691505092915050565b6000620003148383620002e6565b9150826002028217905092915050565b6200032f82620000aa565b67ffffffffffffffff8111156200034b576200034a620000b5565b5b62000357825462000113565b6200036482828562000289565b600060209050601f8311600181146200039c576000841562000387578287015190505b62000393858262000306565b86555062000403565b601f198416620003ac8662000148565b60005b82811015620003d657848901518255600182019150602085019450602081019050620003af565b86831015620003f65784890151620003f2601f891682620002e6565b8355505b6001600288020188555050505b505050505050565b612aef806200041b6000396000f3fe608060405234801561001057600080fd5b50600436106100f55760003560e01c806370a0823111610097578063b88d4fde11610066578063b88d4fde14610297578063c87b56dd146102b3578063e9605544146102e3578063e985e9c514610313576100f5565b806370a08231146101fc5780637f7b13931461022c57806395d89b411461025d578063a22cb4651461027b576100f5565b8063095ea7b3116100d3578063095ea7b31461017857806323b872dd1461019457806342842e0e146101b05780636352211e146101cc576100f5565b806301ffc9a7146100fa57806306fdde031461012a578063081812fc14610148575b600080fd5b610114600480360381019061010f9190611a1d565b610343565b6040516101219190611a65565b60405180910390f35b610132610425565b60405161013f9190611b10565b60405180910390f35b610162600480360381019061015d9190611b68565b6104b7565b60405161016f9190611bd6565b60405180910390f35b610192600480360381019061018d9190611c1d565b6104fd565b005b6101ae60048036038101906101a99190611c5d565b610614565b005b6101ca60048036038101906101c59190611c5d565b610674565b005b6101e660048036038101906101e19190611b68565b610694565b6040516101f39190611bd6565b60405180910390f35b61021660048036038101906102119190611cb0565b61071a565b6040516102239190611cec565b60405180910390f35b61024660048036038101906102419190611b68565b6107d1565b604051610254929190611d07565b60405180910390f35b61026561092e565b6040516102729190611b10565b60405180910390f35b61029560048036038101906102909190611d6a565b6109c0565b005b6102b160048036038101906102ac9190611edf565b6109d6565b005b6102cd60048036038101906102c89190611b68565b610a38565b6040516102da9190611b10565b60405180910390f35b6102fd60048036038101906102f89190612003565b610aa0565b60405161030a9190611cec565b60405180910390f35b61032d6004803603810190610328919061207b565b610b2b565b60405161033a9190611a65565b60405180910390f35b60007f80ac58cd000000000000000000000000000000000000000000000000000000007bffffffffffffffffffffffffffffffffffffffffffffffffffffffff1916827bffffffffffffffffffffffffffffffffffffffffffffffffffffffff1916148061040e57507f5b5e139f000000000000000000000000000000000000000000000000000000007bffffffffffffffffffffffffffffffffffffffffffffffffffffffff1916827bffffffffffffffffffffffffffffffffffffffffffffffffffffffff1916145b8061041e575061041d82610bbf565b5b9050919050565b606060008054610434906120ea565b80601f0160208091040260200160405190810160405280929190818152602001828054610460906120ea565b80156104ad5780601f10610482576101008083540402835291602001916104ad565b820191906000526020600020905b81548152906001019060200180831161049057829003601f168201915b5050505050905090565b60006104c282610c29565b6004600083815260200190815260200160002060009054906101000a900473ffffffffffffffffffffffffffffffffffffffff169050919050565b600061050882610694565b90508073ffffffffffffffffffffffffffffffffffffffff168373ffffffffffffffffffffffffffffffffffffffff1603610578576040517f08c379a000000000000000000000000000000000000000000000000000000000815260040161056f9061218d565b60405180910390fd5b8073ffffffffffffffffffffffffffffffffffffffff16610597610c74565b73ffffffffffffffffffffffffffffffffffffffff1614806105c657506105c5816105c0610c74565b610b2b565b5b610605576040517f08c379a00000000000000000000000000000000000000000000000000000000081526004016105fc9061221f565b60405180910390fd5b61060f8383610c7c565b505050565b61062561061f610c74565b82610d35565b610664576040517f08c379a000000000000000000000000000000000000000000000000000000000815260040161065b906122b1565b60405180910390fd5b61066f838383610dca565b505050565b61068f838383604051806020016040528060008152506109d6565b505050565b6000806106a0836110c3565b9050600073ffffffffffffffffffffffffffffffffffffffff168173ffffffffffffffffffffffffffffffffffffffff1603610711576040517f08c379a00000000000000000000000000000000000000000000000000000000081526004016107089061231d565b60405180910390fd5b80915050919050565b60008073ffffffffffffffffffffffffffffffffffffffff168273ffffffffffffffffffffffffffffffffffffffff160361078a576040517f08c379a0000000000000000000000000000000000000000000000000000000008152600401610781906123af565b60405180910390fd5b600360008373ffffffffffffffffffffffffffffffffffffffff1673ffffffffffffffffffffffffffffffffffffffff168152602001908152602001600020549050919050565b606080600060076000858152602001908152602001600020604051806040016040529081600082018054610804906120ea565b80601f0160208091040260200160405190810160405280929190818152602001828054610830906120ea565b801561087d5780601f106108525761010080835404028352916020019161087d565b820191906000526020600020905b81548152906001019060200180831161086057829003601f168201915b50505050508152602001600182018054610896906120ea565b80601f01602080910402602001604051908101604052809291908181526020018280546108c2906120ea565b801561090f5780601f106108e45761010080835404028352916020019161090f565b820191906000526020600020905b8154815290600101906020018083116108f257829003601f168201915b5050505050815250509050806000015181602001519250925050915091565b60606001805461093d906120ea565b80601f0160208091040260200160405190810160405280929190818152602001828054610969906120ea565b80156109b65780601f1061098b576101008083540402835291602001916109b6565b820191906000526020600020905b81548152906001019060200180831161099957829003601f168201915b5050505050905090565b6109d26109cb610c74565b8383611100565b5050565b6109e76109e1610c74565b83610d35565b610a26576040517f08c379a0000000000000000000000000000000000000000000000000000000008152600401610a1d906122b1565b60405180910390fd5b610a328484848461126c565b50505050565b6060610a4382610c29565b6000610a4d6112c8565b90506000815111610a6d5760405180602001604052806000815250610a98565b80610a77846112df565b604051602001610a8892919061240b565b6040516020818303038152906040525b915050919050565b6000610aac60066113ad565b6000610ab860066113c3565b9050610ac433826113d1565b6000604051806040016040528086815260200185815250905080600760008481526020019081526020016000206000820151816000019081610b0691906125db565b506020820151816001019081610b1c91906125db565b50905050819250505092915050565b6000600560008473ffffffffffffffffffffffffffffffffffffffff1673ffffffffffffffffffffffffffffffffffffffff16815260200190815260200160002060008373ffffffffffffffffffffffffffffffffffffffff1673ffffffffffffffffffffffffffffffffffffffff16815260200190815260200160002060009054906101000a900460ff16905092915050565b60007f01ffc9a7000000000000000000000000000000000000000000000000000000007bffffffffffffffffffffffffffffffffffffffffffffffffffffffff1916827bffffffffffffffffffffffffffffffffffffffffffffffffffffffff1916149050919050565b610c32816113ef565b610c71576040517f08c379a0000000000000000000000000000000000000000000000000000000008152600401610c689061231d565b60405180910390fd5b50565b600033905090565b816004600083815260200190815260200160002060006101000a81548173ffffffffffffffffffffffffffffffffffffffff021916908373ffffffffffffffffffffffffffffffffffffffff160217905550808273ffffffffffffffffffffffffffffffffffffffff16610cef83610694565b73ffffffffffffffffffffffffffffffffffffffff167f8c5be1e5ebec7d5bd14f71427d1e84f3dd0314c0f7b2291e5b200ac8c7c3b92560405160405180910390a45050565b600080610d4183610694565b90508073ffffffffffffffffffffffffffffffffffffffff168473ffffffffffffffffffffffffffffffffffffffff161480610d835750610d828185610b2b565b5b80610dc157508373ffffffffffffffffffffffffffffffffffffffff16610da9846104b7565b73ffffffffffffffffffffffffffffffffffffffff16145b91505092915050565b8273ffffffffffffffffffffffffffffffffffffffff16610dea82610694565b73ffffffffffffffffffffffffffffffffffffffff1614610e40576040517f08c379a0000000000000000000000000000000000000000000000000000000008152600401610e379061271f565b60405180910390fd5b600073ffffffffffffffffffffffffffffffffffffffff168273ffffffffffffffffffffffffffffffffffffffff1603610eaf576040517f08c379a0000000000000000000000000000000000000000000000000000000008152600401610ea6906127b1565b60405180910390fd5b610ebc8383836001611430565b8273ffffffffffffffffffffffffffffffffffffffff16610edc82610694565b73ffffffffffffffffffffffffffffffffffffffff1614610f32576040517f08c379a0000000000000000000000000000000000000000000000000000000008152600401610f299061271f565b60405180910390fd5b6004600082815260200190815260200160002060006101000a81549073ffffffffffffffffffffffffffffffffffffffff02191690556001600360008573ffffffffffffffffffffffffffffffffffffffff1673ffffffffffffffffffffffffffffffffffffffff168152602001908152602001600020600082825403925050819055506001600360008473ffffffffffffffffffffffffffffffffffffffff1673ffffffffffffffffffffffffffffffffffffffff16815260200190815260200160002060008282540192505081905550816002600083815260200190815260200160002060006101000a81548173ffffffffffffffffffffffffffffffffffffffff021916908373ffffffffffffffffffffffffffffffffffffffff160217905550808273ffffffffffffffffffffffffffffffffffffffff168473ffffffffffffffffffffffffffffffffffffffff167fddf252ad1be2c89b69c2b068fc378daa952ba7f163c4a11628f55a4df523b3ef60405160405180910390a46110be8383836001611436565b505050565b60006002600083815260200190815260200160002060009054906101000a900473ffffffffffffffffffffffffffffffffffffffff169050919050565b8173ffffffffffffffffffffffffffffffffffffffff168373ffffffffffffffffffffffffffffffffffffffff160361116e576040517f08c379a00000000000000000000000000000000000000000000000000000000081526004016111659061281d565b60405180910390fd5b80600560008573ffffffffffffffffffffffffffffffffffffffff1673ffffffffffffffffffffffffffffffffffffffff16815260200190815260200160002060008473ffffffffffffffffffffffffffffffffffffffff1673ffffffffffffffffffffffffffffffffffffffff16815260200190815260200160002060006101000a81548160ff0219169083151502179055508173ffffffffffffffffffffffffffffffffffffffff168373ffffffffffffffffffffffffffffffffffffffff167f17307eab39ab6107e8899845ad3d59bd9653f200f220920489ca2b5937696c318360405161125f9190611a65565b60405180910390a3505050565b611277848484610dca565b6112838484848461143c565b6112c2576040517f08c379a00000000000000000000000000000000000000000000000000000000081526004016112b9906128af565b60405180910390fd5b50505050565b606060405180602001604052806000815250905090565b6060600060016112ee846115c3565b01905060008167ffffffffffffffff81111561130d5761130c611db4565b5b6040519080825280601f01601f19166020018201604052801561133f5781602001600182028036833780820191505090505b509050600082602001820190505b6001156113a2578080600190039150507f3031323334353637383961626364656600000000000000000000000000000000600a86061a8153600a8581611396576113956128cf565b5b0494506000850361134d575b819350505050919050565b6001816000016000828254019250508190555050565b600081600001549050919050565b6113eb828260405180602001604052806000815250611716565b5050565b60008073ffffffffffffffffffffffffffffffffffffffff16611411836110c3565b73ffffffffffffffffffffffffffffffffffffffff1614159050919050565b50505050565b50505050565b600061145d8473ffffffffffffffffffffffffffffffffffffffff16611771565b156115b6578373ffffffffffffffffffffffffffffffffffffffff1663150b7a02611486610c74565b8786866040518563ffffffff1660e01b81526004016114a89493929190612953565b6020604051808303816000875af19250505080156114e457506040513d601f19601f820116820180604052508101906114e191906129b4565b60015b611566573d8060008114611514576040519150601f19603f3d011682016040523d82523d6000602084013e611519565b606091505b50600081510361155e576040517f08c379a0000000000000000000000000000000000000000000000000000000008152600401611555906128af565b60405180910390fd5b805181602001fd5b63150b7a0260e01b7bffffffffffffffffffffffffffffffffffffffffffffffffffffffff1916817bffffffffffffffffffffffffffffffffffffffffffffffffffffffff1916149150506115bb565b600190505b949350505050565b600080600090507a184f03e93ff9f4daa797ed6e38ed64bf6a1f0100000000000000008310611621577a184f03e93ff9f4daa797ed6e38ed64bf6a1f0100000000000000008381611617576116166128cf565b5b0492506040810190505b6d04ee2d6d415b85acef8100000000831061165e576d04ee2d6d415b85acef81000000008381611654576116536128cf565b5b0492506020810190505b662386f26fc10000831061168d57662386f26fc100008381611683576116826128cf565b5b0492506010810190505b6305f5e10083106116b6576305f5e10083816116ac576116ab6128cf565b5b0492506008810190505b61271083106116db5761271083816116d1576116d06128cf565b5b0492506004810190505b606483106116fe57606483816116f4576116f36128cf565b5b0492506002810190505b600a831061170d576001810190505b80915050919050565b6117208383611794565b61172d600084848461143c565b61176c576040517f08c379a0000000000000000000000000000000000000000000000000000000008152600401611763906128af565b60405180910390fd5b505050565b6000808273ffffffffffffffffffffffffffffffffffffffff163b119050919050565b600073ffffffffffffffffffffffffffffffffffffffff168273ffffffffffffffffffffffffffffffffffffffff1603611803576040517f08c379a00000000000000000000000000000000000000000000000000000000081526004016117fa90612a2d565b60405180910390fd5b61180c816113ef565b1561184c576040517f08c379a000000000000000000000000000000000000000000000000000000000815260040161184390612a99565b60405180910390fd5b61185a600083836001611430565b611863816113ef565b156118a3576040517f08c379a000000000000000000000000000000000000000000000000000000000815260040161189a90612a99565b60405180910390fd5b6001600360008473ffffffffffffffffffffffffffffffffffffffff1673ffffffffffffffffffffffffffffffffffffffff16815260200190815260200160002060008282540192505081905550816002600083815260200190815260200160002060006101000a81548173ffffffffffffffffffffffffffffffffffffffff021916908373ffffffffffffffffffffffffffffffffffffffff160217905550808273ffffffffffffffffffffffffffffffffffffffff16600073ffffffffffffffffffffffffffffffffffffffff167fddf252ad1be2c89b69c2b068fc378daa952ba7f163c4a11628f55a4df523b3ef60405160405180910390a46119ad600083836001611436565b5050565b6000604051905090565b600080fd5b600080fd5b60007fffffffff0000000000000000000000000000000000000000000000000000000082169050919050565b6119fa816119c5565b8114611a0557600080fd5b50565b600081359050611a17816119f1565b92915050565b600060208284031215611a3357611a326119bb565b5b6000611a4184828501611a08565b91505092915050565b60008115159050919050565b611a5f81611a4a565b82525050565b6000602082019050611a7a6000830184611a56565b92915050565b600081519050919050565b600082825260208201905092915050565b60005b83811015611aba578082015181840152602081019050611a9f565b60008484015250505050565b6000601f19601f8301169050919050565b6000611ae282611a80565b611aec8185611a8b565b9350611afc818560208601611a9c565b611b0581611ac6565b840191505092915050565b60006020820190508181036000830152611b2a8184611ad7565b905092915050565b6000819050919050565b611b4581611b32565b8114611b5057600080fd5b50565b600081359050611b6281611b3c565b92915050565b600060208284031215611b7e57611b7d6119bb565b5b6000611b8c84828501611b53565b91505092915050565b600073ffffffffffffffffffffffffffffffffffffffff82169050919050565b6000611bc082611b95565b9050919050565b611bd081611bb5565b82525050565b6000602082019050611beb6000830184611bc7565b92915050565b611bfa81611bb5565b8114611c0557600080fd5b50565b600081359050611c1781611bf1565b92915050565b60008060408385031215611c3457611c336119bb565b5b6000611c4285828601611c08565b9250506020611c5385828601611b53565b9150509250929050565b600080600060608486031215611c7657611c756119bb565b5b6000611c8486828701611c08565b9350506020611c9586828701611c08565b9250506040611ca686828701611b53565b9150509250925092565b600060208284031215611cc657611cc56119bb565b5b6000611cd484828501611c08565b91505092915050565b611ce681611b32565b82525050565b6000602082019050611d016000830184611cdd565b92915050565b60006040820190508181036000830152611d218185611ad7565b90508181036020830152611d358184611ad7565b90509392505050565b611d4781611a4a565b8114611d5257600080fd5b50565b600081359050611d6481611d3e565b92915050565b60008060408385031215611d8157611d806119bb565b5b6000611d8f85828601611c08565b9250506020611da085828601611d55565b9150509250929050565b600080fd5b600080fd5b7f4e487b7100000000000000000000000000000000000000000000000000000000600052604160045260246000fd5b611dec82611ac6565b810181811067ffffffffffffffff82111715611e0b57611e0a611db4565b5b80604052505050565b6000611e1e6119b1565b9050611e2a8282611de3565b919050565b600067ffffffffffffffff821115611e4a57611e49611db4565b5b611e5382611ac6565b9050602081019050919050565b82818337600083830152505050565b6000611e82611e7d84611e2f565b611e14565b905082815260208101848484011115611e9e57611e9d611daf565b5b611ea9848285611e60565b509392505050565b600082601f830112611ec657611ec5611daa565b5b8135611ed6848260208601611e6f565b91505092915050565b60008060008060808587031215611ef957611ef86119bb565b5b6000611f0787828801611c08565b9450506020611f1887828801611c08565b9350506040611f2987828801611b53565b925050606085013567ffffffffffffffff811115611f4a57611f496119c0565b5b611f5687828801611eb1565b91505092959194509250565b600067ffffffffffffffff821115611f7d57611f7c611db4565b5b611f8682611ac6565b9050602081019050919050565b6000611fa6611fa184611f62565b611e14565b905082815260208101848484011115611fc257611fc1611daf565b5b611fcd848285611e60565b509392505050565b600082601f830112611fea57611fe9611daa565b5b8135611ffa848260208601611f93565b91505092915050565b6000806040838503121561201a576120196119bb565b5b600083013567ffffffffffffffff811115612038576120376119c0565b5b61204485828601611fd5565b925050602083013567ffffffffffffffff811115612065576120646119c0565b5b61207185828601611fd5565b9150509250929050565b60008060408385031215612092576120916119bb565b5b60006120a085828601611c08565b92505060206120b185828601611c08565b9150509250929050565b7f4e487b7100000000000000000000000000000000000000000000000000000000600052602260045260246000fd5b6000600282049050600182168061210257607f821691505b602082108103612115576121146120bb565b5b50919050565b7f4552433732313a20617070726f76616c20746f2063757272656e74206f776e6560008201527f7200000000000000000000000000000000000000000000000000000000000000602082015250565b6000612177602183611a8b565b91506121828261211b565b604082019050919050565b600060208201905081810360008301526121a68161216a565b9050919050565b7f4552433732313a20617070726f76652063616c6c6572206973206e6f7420746f60008201527f6b656e206f776e6572206f7220617070726f76656420666f7220616c6c000000602082015250565b6000612209603d83611a8b565b9150612214826121ad565b604082019050919050565b60006020820190508181036000830152612238816121fc565b9050919050565b7f4552433732313a2063616c6c6572206973206e6f7420746f6b656e206f776e6560008201527f72206f7220617070726f76656400000000000000000000000000000000000000602082015250565b600061229b602d83611a8b565b91506122a68261223f565b604082019050919050565b600060208201905081810360008301526122ca8161228e565b9050919050565b7f4552433732313a20696e76616c696420746f6b656e2049440000000000000000600082015250565b6000612307601883611a8b565b9150612312826122d1565b602082019050919050565b60006020820190508181036000830152612336816122fa565b9050919050565b7f4552433732313a2061646472657373207a65726f206973206e6f74206120766160008201527f6c6964206f776e65720000000000000000000000000000000000000000000000602082015250565b6000612399602983611a8b565b91506123a48261233d565b604082019050919050565b600060208201905081810360008301526123c88161238c565b9050919050565b600081905092915050565b60006123e582611a80565b6123ef81856123cf565b93506123ff818560208601611a9c565b80840191505092915050565b600061241782856123da565b915061242382846123da565b91508190509392505050565b60008190508160005260206000209050919050565b60006020601f8301049050919050565b600082821b905092915050565b6000600883026124917fffffffffffffffffffffffffffffffffffffffffffffffffffffffffffffffff82612454565b61249b8683612454565b95508019841693508086168417925050509392505050565b6000819050919050565b60006124d86124d36124ce84611b32565b6124b3565b611b32565b9050919050565b6000819050919050565b6124f2836124bd565b6125066124fe826124df565b848454612461565b825550505050565b600090565b61251b61250e565b6125268184846124e9565b505050565b5b8181101561254a5761253f600082612513565b60018101905061252c565b5050565b601f82111561258f576125608161242f565b61256984612444565b81016020851015612578578190505b61258c61258485612444565b83018261252b565b50505b505050565b600082821c905092915050565b60006125b260001984600802612594565b1980831691505092915050565b60006125cb83836125a1565b9150826002028217905092915050565b6125e482611a80565b67ffffffffffffffff8111156125fd576125fc611db4565b5b61260782546120ea565b61261282828561254e565b600060209050601f8311600181146126455760008415612633578287015190505b61263d85826125bf565b8655506126a5565b601f1984166126538661242f565b60005b8281101561267b57848901518255600182019150602085019450602081019050612656565b868310156126985784890151612694601f8916826125a1565b8355505b6001600288020188555050505b505050505050565b7f4552433732313a207472616e736665722066726f6d20696e636f72726563742060008201527f6f776e6572000000000000000000000000000000000000000000000000000000602082015250565b6000612709602583611a8b565b9150612714826126ad565b604082019050919050565b60006020820190508181036000830152612738816126fc565b9050919050565b7f4552433732313a207472616e7366657220746f20746865207a65726f2061646460008201527f7265737300000000000000000000000000000000000000000000000000000000602082015250565b600061279b602483611a8b565b91506127a68261273f565b604082019050919050565b600060208201905081810360008301526127ca8161278e565b9050919050565b7f4552433732313a20617070726f766520746f2063616c6c657200000000000000600082015250565b6000612807601983611a8b565b9150612812826127d1565b602082019050919050565b60006020820190508181036000830152612836816127fa565b9050919050565b7f4552433732313a207472616e7366657220746f206e6f6e20455243373231526560008201527f63656976657220696d706c656d656e7465720000000000000000000000000000602082015250565b6000612899603283611a8b565b91506128a48261283d565b604082019050919050565b600060208201905081810360008301526128c88161288c565b9050919050565b7f4e487b7100000000000000000000000000000000000000000000000000000000600052601260045260246000fd5b600081519050919050565b600082825260208201905092915050565b6000612925826128fe565b61292f8185612909565b935061293f818560208601611a9c565b61294881611ac6565b840191505092915050565b60006080820190506129686000830187611bc7565b6129756020830186611bc7565b6129826040830185611cdd565b8181036060830152612994818461291a565b905095945050505050565b6000815190506129ae816119f1565b92915050565b6000602082840312156129ca576129c96119bb565b5b60006129d88482850161299f565b91505092915050565b7f4552433732313a206d696e7420746f20746865207a65726f2061646472657373600082015250565b6000612a17602083611a8b565b9150612a22826129e1565b602082019050919050565b60006020820190508181036000830152612a4681612a0a565b9050919050565b7f4552433732313a20746f6b656e20616c7265616479206d696e74656400000000600082015250565b6000612a83601c83611a8b565b9150612a8e82612a4d565b602082019050919050565b60006020820190508181036000830152612ab281612a76565b905091905056fea2646970667358221220bb4ee8cefbfd18a15ed6a48835cfc91d3bcd85743d4a9aa0f5f727ace042c7be64736f6c63430008130033",
  "immutableReferences": {},
  "source": "pragma solidity ^0.8.0;\n\nimport \"@openzeppelin/contracts/token/ERC721/ERC721.sol\";\nimport \"@openzeppelin/contracts/utils/Counters.sol\";\n\ncontract TravelNFT is ERC721 {\n    using Counters for Counters.Counter;\n    Counters.Counter private _tokenIds;\n\n    struct VacationLocation {\n        string name;\n        string imageURI;\n    }\n\n    mapping(uint256 => VacationLocation) private _vacationLocations;\n\n    constructor() ERC721(\"TravelNFT\", \"TNFT\") {}\n\n    function mintNFT(string memory name, string memory imageURI)\n        public\n        returns (uint256)\n    {\n        _tokenIds.increment();\n\n        uint256 newItemId = _tokenIds.current();\n        _safeMint(msg.sender, newItemId);\n        // _setTokenURI(newItemId, imageURI);\n\n        VacationLocation memory location = VacationLocation(name, imageURI);\n        _vacationLocations[newItemId] = location;\n\n        return newItemId;\n    }\n\n    function getLocation(uint256 tokenId)\n        public\n        view\n        returns (string memory, string memory)\n    {\n        VacationLocation memory location = _vacationLocations[tokenId];\n        return (location.name, location.imageURI);\n    }\n}\n",
  "sourcePath": "/Users/llow/Desktop/TATOOINE/contracts/TravelNFT.sol",
  "compiler": {
    "name": "solc",
    "version": "0.8.19+commit.7dd6d404.Emscripten.clang"
  },
  "schemaVersion": "3.4.13",
  "updatedAt": "2023-03-15T08:04:03.459Z",
  "devdoc": {
    "events": {
      "Approval(address,address,uint256)": {
        "details": "Emitted when `owner` enables `approved` to manage the `tokenId` token."
      },
      "ApprovalForAll(address,address,bool)": {
        "details": "Emitted when `owner` enables or disables (`approved`) `operator` to manage all of its assets."
      },
      "Transfer(address,address,uint256)": {
        "details": "Emitted when `tokenId` token is transferred from `from` to `to`."
      }
    },
    "kind": "dev",
    "methods": {
      "approve(address,uint256)": {
        "details": "See {IERC721-approve}."
      },
      "balanceOf(address)": {
        "details": "See {IERC721-balanceOf}."
      },
      "getApproved(uint256)": {
        "details": "See {IERC721-getApproved}."
      },
      "isApprovedForAll(address,address)": {
        "details": "See {IERC721-isApprovedForAll}."
      },
      "name()": {
        "details": "See {IERC721Metadata-name}."
      },
      "ownerOf(uint256)": {
        "details": "See {IERC721-ownerOf}."
      },
      "safeTransferFrom(address,address,uint256)": {
        "details": "See {IERC721-safeTransferFrom}."
      },
      "safeTransferFrom(address,address,uint256,bytes)": {
        "details": "See {IERC721-safeTransferFrom}."
      },
      "setApprovalForAll(address,bool)": {
        "details": "See {IERC721-setApprovalForAll}."
      },
      "supportsInterface(bytes4)": {
        "details": "See {IERC165-supportsInterface}."
      },
      "symbol()": {
        "details": "See {IERC721Metadata-symbol}."
      },
      "tokenURI(uint256)": {
        "details": "See {IERC721Metadata-tokenURI}."
      },
      "transferFrom(address,address,uint256)": {
        "details": "See {IERC721-transferFrom}."
      }
    },
    "version": 1
  },
  "userdoc": {
    "kind": "user",
    "methods": {},
    "version": 1
  }
}